:1000000017C0FECFFDCFFCCFFBCFDEC0F9CFF8CFBE
:10001000F7CFF6CFF5CFF4CFF3CFF2CFF1CFF0CFCC
:10002000EFCFEECFEDCF000002000200260000006F
:10003000F894EE27ECBBE5BF8DE0A2E0ED938A9546
:10004000E9F780E8A0E6ED938A95E9F7E8E2F0E0C9
:1000500085919591009761F0A591B59105901590C6
:10006000BF01F00105900D920197E1F7FB01F0CF80
:10007000E0E0E3BBE4BBE5BBEFEDEDBFC0E800C0F3
:10008000A7D0C098C198442478947AD039D058D059
:1000900005D0F894A8957894F8CFFFCFE52DF0E03F
:1000A000309709F1E230A0E0FA0711F4BED01BC08E
:1000B000E130A0E0FA0751F4E2E0E41511F4B5D024
:1000C00004C0E1E04E2EC09AC1980DC0E330A0E01C
:1000D000FA0749F4E1E0E41511F4A7D004C0E2E026
:1000E0004E2EC098C19A332021F0E1E0E41509F4C6
:1000F0009CD0222021F0E2E0E41509F496D0089586
:100100003324809B17C0A0918000B0918100A43659
:10011000E0E0BE0760F0E1E03E2EE0918000F0916B
:1001200081003A97E0938000F09381000895A0E861
:1001300082D005C0E0E0E0938000E0938100089564
:100140002224819B17C0A0918200B0918300A43625
:10015000E0E0BE0760F0E1E02E2EE0918200F09139
:1001600083003A97E0938200F09383000895A2E819
:1001700062D005C0E0E0E0938200E0938300089540
:100180005524839B02C0E2E009C0829902C0E1E0ED
:1001900005C0849902C0E3E001C0E0E0E093840080
:1001A000E03061F04ED029F450908400A5E843D0AF
:1001B000089547D010F4A5E83ED005C0E0E0E093F4
:1001C0008500E09386000895EA9343D0E99118955D
:1001D000E0E8E6BDE0E0E6BDEABBEBBBE3E0E7BBA1
:1001E000E0E0E8BBE1BBE2BBE0BFE3BFE2BFE6BFEC
:1001F000ECBFEFBDEEBD2DD0E0E0E5BDE4BDEBBD55
:10020000EABDE9BDE8BDE0E8E9BFE0E0EBBFE5BF7E
:10021000EDB9EAB9E0E8E8B9E0E0E1B9A895E1B5FF
:10022000E861E1BDEEE0E1BD08954424C198C098C5
:10023000A0E9B1E013C0ED91FD913196FE93EE93EC
:100240000895A0918500B0918600A639E0E0BE0730
:100250000895E3E6EDBDE0ECECBD0895109639F0AD
:10026000A89588EE93E00197F1F71197C9F70895E3
:00000001FF
